{
  "_format": "hh-sol-artifact-1",
  "contractName": "EduBlockSBT",
  "sourceName": "contracts/EduBlockSBT.sol",
  "abi": [
    {
      "inputs": [],
      "stateMutability": "nonpayable",
      "type": "constructor"
    },
    {
      "inputs": [
        {
          "internalType": "address",
          "name": "sender",
          "type": "address"
        },
        {
          "internalType": "uint256",
          "name": "tokenId",
          "type": "uint256"
        },
        {
          "internalType": "address",
          "name": "owner",
          "type": "address"
        }
      ],
      "name": "ERC721IncorrectOwner",
      "type": "error"
    },
    {
      "inputs": [
        {
          "internalType": "address",
          "name": "operator",
          "type": "address"
        },
        {
          "internalType": "uint256",
          "name": "tokenId",
          "type": "uint256"
        }
      ],
      "name": "ERC721InsufficientApproval",
      "type": "error"
    },
    {
      "inputs": [
        {
          "internalType": "address",
          "name": "approver",
          "type": "address"
        }
      ],
      "name": "ERC721InvalidApprover",
      "type": "error"
    },
    {
      "inputs": [
        {
          "internalType": "address",
          "name": "operator",
          "type": "address"
        }
      ],
      "name": "ERC721InvalidOperator",
      "type": "error"
    },
    {
      "inputs": [
        {
          "internalType": "address",
          "name": "owner",
          "type": "address"
        }
      ],
      "name": "ERC721InvalidOwner",
      "type": "error"
    },
    {
      "inputs": [
        {
          "internalType": "address",
          "name": "receiver",
          "type": "address"
        }
      ],
      "name": "ERC721InvalidReceiver",
      "type": "error"
    },
    {
      "inputs": [
        {
          "internalType": "address",
          "name": "sender",
          "type": "address"
        }
      ],
      "name": "ERC721InvalidSender",
      "type": "error"
    },
    {
      "inputs": [
        {
          "internalType": "uint256",
          "name": "tokenId",
          "type": "uint256"
        }
      ],
      "name": "ERC721NonexistentToken",
      "type": "error"
    },
    {
      "inputs": [
        {
          "internalType": "address",
          "name": "owner",
          "type": "address"
        }
      ],
      "name": "OwnableInvalidOwner",
      "type": "error"
    },
    {
      "inputs": [
        {
          "internalType": "address",
          "name": "account",
          "type": "address"
        }
      ],
      "name": "OwnableUnauthorizedAccount",
      "type": "error"
    },
    {
      "anonymous": false,
      "inputs": [
        {
          "indexed": true,
          "internalType": "address",
          "name": "owner",
          "type": "address"
        },
        {
          "indexed": true,
          "internalType": "address",
          "name": "approved",
          "type": "address"
        },
        {
          "indexed": true,
          "internalType": "uint256",
          "name": "tokenId",
          "type": "uint256"
        }
      ],
      "name": "Approval",
      "type": "event"
    },
    {
      "anonymous": false,
      "inputs": [
        {
          "indexed": true,
          "internalType": "address",
          "name": "owner",
          "type": "address"
        },
        {
          "indexed": true,
          "internalType": "address",
          "name": "operator",
          "type": "address"
        },
        {
          "indexed": false,
          "internalType": "bool",
          "name": "approved",
          "type": "bool"
        }
      ],
      "name": "ApprovalForAll",
      "type": "event"
    },
    {
      "anonymous": false,
      "inputs": [
        {
          "indexed": false,
          "internalType": "uint256",
          "name": "_fromTokenId",
          "type": "uint256"
        },
        {
          "indexed": false,
          "internalType": "uint256",
          "name": "_toTokenId",
          "type": "uint256"
        }
      ],
      "name": "BatchMetadataUpdate",
      "type": "event"
    },
    {
      "anonymous": false,
      "inputs": [
        {
          "indexed": true,
          "internalType": "uint256",
          "name": "tokenId",
          "type": "uint256"
        },
        {
          "indexed": true,
          "internalType": "address",
          "name": "student",
          "type": "address"
        },
        {
          "indexed": false,
          "internalType": "string",
          "name": "courseName",
          "type": "string"
        },
        {
          "indexed": false,
          "internalType": "string",
          "name": "issuer",
          "type": "string"
        },
        {
          "indexed": false,
          "internalType": "string",
          "name": "issuedDate",
          "type": "string"
        }
      ],
      "name": "CertificateIssued",
      "type": "event"
    },
    {
      "anonymous": false,
      "inputs": [
        {
          "indexed": false,
          "internalType": "uint256",
          "name": "_tokenId",
          "type": "uint256"
        }
      ],
      "name": "MetadataUpdate",
      "type": "event"
    },
    {
      "anonymous": false,
      "inputs": [
        {
          "indexed": true,
          "internalType": "address",
          "name": "previousOwner",
          "type": "address"
        },
        {
          "indexed": true,
          "internalType": "address",
          "name": "newOwner",
          "type": "address"
        }
      ],
      "name": "OwnershipTransferred",
      "type": "event"
    },
    {
      "anonymous": false,
      "inputs": [
        {
          "indexed": true,
          "internalType": "address",
          "name": "from",
          "type": "address"
        },
        {
          "indexed": true,
          "internalType": "address",
          "name": "to",
          "type": "address"
        },
        {
          "indexed": true,
          "internalType": "uint256",
          "name": "tokenId",
          "type": "uint256"
        }
      ],
      "name": "Transfer",
      "type": "event"
    },
    {
      "inputs": [
        {
          "internalType": "address",
          "name": "to",
          "type": "address"
        },
        {
          "internalType": "uint256",
          "name": "tokenId",
          "type": "uint256"
        }
      ],
      "name": "approve",
      "outputs": [],
      "stateMutability": "pure",
      "type": "function"
    },
    {
      "inputs": [
        {
          "internalType": "address",
          "name": "owner",
          "type": "address"
        }
      ],
      "name": "balanceOf",
      "outputs": [
        {
          "internalType": "uint256",
          "name": "",
          "type": "uint256"
        }
      ],
      "stateMutability": "view",
      "type": "function"
    },
    {
      "inputs": [
        {
          "internalType": "uint256",
          "name": "",
          "type": "uint256"
        }
      ],
      "name": "certificates",
      "outputs": [
        {
          "internalType": "string",
          "name": "courseName",
          "type": "string"
        },
        {
          "internalType": "string",
          "name": "issuer",
          "type": "string"
        },
        {
          "internalType": "string",
          "name": "issuedDate",
          "type": "string"
        },
        {
          "internalType": "address",
          "name": "student",
          "type": "address"
        },
        {
          "internalType": "string",
          "name": "metadataURI",
          "type": "string"
        }
      ],
      "stateMutability": "view",
      "type": "function"
    },
    {
      "inputs": [
        {
          "internalType": "uint256",
          "name": "tokenId",
          "type": "uint256"
        }
      ],
      "name": "getApproved",
      "outputs": [
        {
          "internalType": "address",
          "name": "",
          "type": "address"
        }
      ],
      "stateMutability": "view",
      "type": "function"
    },
    {
      "inputs": [
        {
          "internalType": "address",
          "name": "owner",
          "type": "address"
        },
        {
          "internalType": "address",
          "name": "operator",
          "type": "address"
        }
      ],
      "name": "isApprovedForAll",
      "outputs": [
        {
          "internalType": "bool",
          "name": "",
          "type": "bool"
        }
      ],
      "stateMutability": "view",
      "type": "function"
    },
    {
      "inputs": [
        {
          "internalType": "address",
          "name": "student",
          "type": "address"
        },
        {
          "internalType": "string",
          "name": "courseName",
          "type": "string"
        },
        {
          "internalType": "string",
          "name": "issuer",
          "type": "string"
        },
        {
          "internalType": "string",
          "name": "issuedDate",
          "type": "string"
        },
        {
          "internalType": "string",
          "name": "metadataURI",
          "type": "string"
        }
      ],
      "name": "issueCertificate",
      "outputs": [
        {
          "internalType": "uint256",
          "name": "",
          "type": "uint256"
        }
      ],
      "stateMutability": "nonpayable",
      "type": "function"
    },
    {
      "inputs": [],
      "name": "name",
      "outputs": [
        {
          "internalType": "string",
          "name": "",
          "type": "string"
        }
      ],
      "stateMutability": "view",
      "type": "function"
    },
    {
      "inputs": [],
      "name": "owner",
      "outputs": [
        {
          "internalType": "address",
          "name": "",
          "type": "address"
        }
      ],
      "stateMutability": "view",
      "type": "function"
    },
    {
      "inputs": [
        {
          "internalType": "uint256",
          "name": "tokenId",
          "type": "uint256"
        }
      ],
      "name": "ownerOf",
      "outputs": [
        {
          "internalType": "address",
          "name": "",
          "type": "address"
        }
      ],
      "stateMutability": "view",
      "type": "function"
    },
    {
      "inputs": [],
      "name": "renounceOwnership",
      "outputs": [],
      "stateMutability": "nonpayable",
      "type": "function"
    },
    {
      "inputs": [
        {
          "internalType": "address",
          "name": "from",
          "type": "address"
        },
        {
          "internalType": "address",
          "name": "to",
          "type": "address"
        },
        {
          "internalType": "uint256",
          "name": "tokenId",
          "type": "uint256"
        }
      ],
      "name": "safeTransferFrom",
      "outputs": [],
      "stateMutability": "nonpayable",
      "type": "function"
    },
    {
      "inputs": [
        {
          "internalType": "address",
          "name": "from",
          "type": "address"
        },
        {
          "internalType": "address",
          "name": "to",
          "type": "address"
        },
        {
          "internalType": "uint256",
          "name": "tokenId",
          "type": "uint256"
        },
        {
          "internalType": "bytes",
          "name": "data",
          "type": "bytes"
        }
      ],
      "name": "safeTransferFrom",
      "outputs": [],
      "stateMutability": "nonpayable",
      "type": "function"
    },
    {
      "inputs": [
        {
          "internalType": "address",
          "name": "operator",
          "type": "address"
        },
        {
          "internalType": "bool",
          "name": "approved",
          "type": "bool"
        }
      ],
      "name": "setApprovalForAll",
      "outputs": [],
      "stateMutability": "pure",
      "type": "function"
    },
    {
      "inputs": [
        {
          "internalType": "bytes4",
          "name": "interfaceId",
          "type": "bytes4"
        }
      ],
      "name": "supportsInterface",
      "outputs": [
        {
          "internalType": "bool",
          "name": "",
          "type": "bool"
        }
      ],
      "stateMutability": "view",
      "type": "function"
    },
    {
      "inputs": [],
      "name": "symbol",
      "outputs": [
        {
          "internalType": "string",
          "name": "",
          "type": "string"
        }
      ],
      "stateMutability": "view",
      "type": "function"
    },
    {
      "inputs": [
        {
          "internalType": "uint256",
          "name": "tokenId",
          "type": "uint256"
        }
      ],
      "name": "tokenURI",
      "outputs": [
        {
          "internalType": "string",
          "name": "",
          "type": "string"
        }
      ],
      "stateMutability": "view",
      "type": "function"
    },
    {
      "inputs": [
        {
          "internalType": "address",
          "name": "from",
          "type": "address"
        },
        {
          "internalType": "address",
          "name": "to",
          "type": "address"
        },
        {
          "internalType": "uint256",
          "name": "tokenId",
          "type": "uint256"
        }
      ],
      "name": "transferFrom",
      "outputs": [],
      "stateMutability": "nonpayable",
      "type": "function"
    },
    {
      "inputs": [
        {
          "internalType": "address",
          "name": "newOwner",
          "type": "address"
        }
      ],
      "name": "transferOwnership",
      "outputs": [],
      "stateMutability": "nonpayable",
      "type": "function"
    },
    {
      "inputs": [
        {
          "internalType": "uint256",
          "name": "tokenId",
          "type": "uint256"
        },
        {
          "internalType": "address",
          "name": "student",
          "type": "address"
        }
      ],
      "name": "verifyCertificate",
      "outputs": [
        {
          "internalType": "bool",
          "name": "",
          "type": "bool"
        }
      ],
      "stateMutability": "view",
      "type": "function"
    }
  ],
  "bytecode": "0x60806040523480156200001157600080fd5b50336040518060400160405280601881526020017f456475426c6f636b20536f756c626f756e6420546f6b656e00000000000000008152506040518060400160405280600681526020016511511554d09560d21b8152508160009081620000799190620001c3565b506001620000888282620001c3565b5050506001600160a01b038116620000ba57604051631e4fbdf760e01b81526000600482015260240160405180910390fd5b620000c581620000cc565b506200028f565b600780546001600160a01b038381166001600160a01b0319831681179093556040519116919082907f8be0079c531659141344cd1fd0a4f28419497f9722a3daafe3b4186f6b6457e090600090a35050565b634e487b7160e01b600052604160045260246000fd5b600181811c908216806200014957607f821691505b6020821081036200016a57634e487b7160e01b600052602260045260246000fd5b50919050565b601f821115620001be57600081815260208120601f850160051c81016020861015620001995750805b601f850160051c820191505b81811015620001ba57828155600101620001a5565b5050505b505050565b81516001600160401b03811115620001df57620001df6200011e565b620001f781620001f0845462000134565b8462000170565b602080601f8311600181146200022f5760008415620002165750858301515b600019600386901b1c1916600185901b178555620001ba565b600085815260208120601f198616915b8281101562000260578886015182559484019460019091019084016200023f565b50858210156200027f5787850151600019600388901b60f8161c191681555b5050505050600190811b01905550565b611696806200029f6000396000f3fe608060405234801561001057600080fd5b50600436106101215760003560e01c8063715018a6116100ad578063b88d4fde11610071578063b88d4fde14610268578063c87b56dd1461027b578063e985e9c51461028e578063e9dd92ee146102ca578063f2fde38b146102dd57600080fd5b8063715018a6146102215780638da5cb5b1461022957806394b465251461023a57806395d89b411461024d578063a22cb4651461025557600080fd5b806323b872dd116100f457806323b872dd146101a357806342842e0e146101b65780636352211e146101c9578063663b3e22146101dc57806370a082311461020057600080fd5b806301ffc9a71461012657806306fdde031461014e578063081812fc14610163578063095ea7b31461018e575b600080fd5b610139610134366004611021565b6102f0565b60405190151581526020015b60405180910390f35b61015661031b565b604051610145919061108e565b6101766101713660046110a1565b6103ad565b6040516001600160a01b039091168152602001610145565b6101a161019c3660046110d6565b6103d6565b005b6101a16101b1366004611100565b610423565b6101a16101c4366004611100565b6104ae565b6101766101d73660046110a1565b6104ce565b6101ef6101ea3660046110a1565b6104d9565b60405161014595949392919061113c565b61021361020e3660046111a4565b610736565b604051908152602001610145565b6101a161077e565b6007546001600160a01b0316610176565b6101396102483660046111bf565b610792565b6101566107b8565b6101a16102633660046111eb565b6107c7565b6101a16102763660046112b3565b61081f565b6101566102893660046110a1565b610837565b61013961029c36600461132f565b6001600160a01b03918216600090815260056020908152604080832093909416825291909152205460ff1690565b6102136102d8366004611379565b610948565b6101a16102eb3660046111a4565b610a84565b60006001600160e01b03198216632483248360e11b1480610315575061031582610ac2565b92915050565b60606000805461032a90611437565b80601f016020809104026020016040519081016040528092919081815260200182805461035690611437565b80156103a35780601f10610378576101008083540402835291602001916103a3565b820191906000526020600020905b81548152906001019060200180831161038657829003601f168201915b5050505050905090565b60006103b882610b12565b506000828152600460205260409020546001600160a01b0316610315565b60405162461bcd60e51b815260206004820152601f60248201527f536f756c626f756e643a20617070726f76616c206e6f7420616c6c6f7765640060448201526064015b60405180910390fd5b6001600160a01b03821661044d57604051633250574960e11b81526000600482015260240161041a565b600061045a838333610b4b565b9050836001600160a01b0316816001600160a01b0316146104a8576040516364283d7b60e01b81526001600160a01b038086166004830152602482018490528216604482015260640161041a565b50505050565b6104c98383836040518060200160405280600081525061081f565b505050565b600061031582610b12565b6009602052600090815260409020805481906104f490611437565b80601f016020809104026020016040519081016040528092919081815260200182805461052090611437565b801561056d5780601f106105425761010080835404028352916020019161056d565b820191906000526020600020905b81548152906001019060200180831161055057829003601f168201915b50505050509080600101805461058290611437565b80601f01602080910402602001604051908101604052809291908181526020018280546105ae90611437565b80156105fb5780601f106105d0576101008083540402835291602001916105fb565b820191906000526020600020905b8154815290600101906020018083116105de57829003601f168201915b50505050509080600201805461061090611437565b80601f016020809104026020016040519081016040528092919081815260200182805461063c90611437565b80156106895780601f1061065e57610100808354040283529160200191610689565b820191906000526020600020905b81548152906001019060200180831161066c57829003601f168201915b505050600384015460048501805494956001600160a01b039092169491935091506106b390611437565b80601f01602080910402602001604051908101604052809291908181526020018280546106df90611437565b801561072c5780601f106107015761010080835404028352916020019161072c565b820191906000526020600020905b81548152906001019060200180831161070f57829003601f168201915b5050505050905085565b60006001600160a01b038216610762576040516322718ad960e21b81526000600482015260240161041a565b506001600160a01b031660009081526003602052604090205490565b610786610b96565b6107906000610bc3565b565b6000816001600160a01b03166107a7846104ce565b6001600160a01b0316149392505050565b60606001805461032a90611437565b60405162461bcd60e51b815260206004820152602760248201527f536f756c626f756e643a20617070726f76616c20666f7220616c6c206e6f7420604482015266185b1b1bddd95960ca1b606482015260840161041a565b61082a848484610423565b6104a83385858585610c15565b606061084282610b12565b506000828152600660205260408120805461085c90611437565b80601f016020809104026020016040519081016040528092919081815260200182805461088890611437565b80156108d55780601f106108aa576101008083540402835291602001916108d5565b820191906000526020600020905b8154815290600101906020018083116108b857829003601f168201915b5050505050905060006108f360408051602081019091526000815290565b90508051600003610905575092915050565b81511561093757808260405160200161091f929190611471565b60405160208183030381529060405292505050919050565b61094084610d40565b949350505050565b6000610952610b96565b60088054906000610962836114a0565b90915550506008546109748782610db5565b61097e8184610dd3565b6040805160a08101825287815260208082018890528183018790526001600160a01b038a166060830152608082018690526000848152600990915291909120815181906109cb908261150d565b50602082015160018201906109e0908261150d565b50604082015160028201906109f5908261150d565b5060608201516003820180546001600160a01b0319166001600160a01b0390921691909117905560808201516004820190610a30908261150d565b50905050866001600160a01b0316817f5e6f8d0e0c69367b877ce8a6320e7e57e120bebb1ccf1b4b5a7443ee2e0559b4888888604051610a72939291906115cd565b60405180910390a39695505050505050565b610a8c610b96565b6001600160a01b038116610ab657604051631e4fbdf760e01b81526000600482015260240161041a565b610abf81610bc3565b50565b60006001600160e01b031982166380ac58cd60e01b1480610af357506001600160e01b03198216635b5e139f60e01b145b8061031557506301ffc9a760e01b6001600160e01b0319831614610315565b6000818152600260205260408120546001600160a01b03168061031557604051637e27328960e01b81526004810184905260240161041a565b60405162461bcd60e51b815260206004820152601f60248201527f536f756c626f756e643a207472616e73666572206e6f7420616c6c6f77656400604482015260009060640161041a565b6007546001600160a01b031633146107905760405163118cdaa760e01b815233600482015260240161041a565b600780546001600160a01b038381166001600160a01b0319831681179093556040519116919082907f8be0079c531659141344cd1fd0a4f28419497f9722a3daafe3b4186f6b6457e090600090a35050565b6001600160a01b0383163b15610d3957604051630a85bd0160e11b81526001600160a01b0384169063150b7a0290610c57908890889087908790600401611610565b6020604051808303816000875af1925050508015610c92575060408051601f3d908101601f19168201909252610c8f91810190611643565b60015b610cfb573d808015610cc0576040519150601f19603f3d011682016040523d82523d6000602084013e610cc5565b606091505b508051600003610cf357604051633250574960e11b81526001600160a01b038516600482015260240161041a565b805160208201fd5b6001600160e01b03198116630a85bd0160e11b14610d3757604051633250574960e11b81526001600160a01b038516600482015260240161041a565b505b5050505050565b6060610d4b82610b12565b506000610d6360408051602081019091526000815290565b90506000815111610d835760405180602001604052806000815250610dae565b80610d8d84610e23565b604051602001610d9e929190611471565b6040516020818303038152906040525b9392505050565b610dcf828260405180602001604052806000815250610eb6565b5050565b6000828152600660205260409020610deb828261150d565b506040518281527ff8e1a15aba9398e019f0b49df1a4fde98ee17ae345cb5f6b5e2c27f5033e8ce79060200160405180910390a15050565b60606000610e3083610ece565b600101905060008167ffffffffffffffff811115610e5057610e50611227565b6040519080825280601f01601f191660200182016040528015610e7a576020820181803683370190505b5090508181016020015b600019016f181899199a1a9b1b9c1cb0b131b232b360811b600a86061a8153600a8504945084610e8457509392505050565b610ec08383610fa6565b6104c9336000858585610c15565b60008072184f03e93ff9f4daa797ed6e38ed64bf6a1f0160401b8310610f0d5772184f03e93ff9f4daa797ed6e38ed64bf6a1f0160401b830492506040015b6d04ee2d6d415b85acef81000000008310610f39576d04ee2d6d415b85acef8100000000830492506020015b662386f26fc100008310610f5757662386f26fc10000830492506010015b6305f5e1008310610f6f576305f5e100830492506008015b6127108310610f8357612710830492506004015b60648310610f95576064830492506002015b600a83106103155760010192915050565b6001600160a01b038216610fd057604051633250574960e11b81526000600482015260240161041a565b6000610fde83836000610b4b565b90506001600160a01b038116156104c9576040516339e3563760e11b81526000600482015260240161041a565b6001600160e01b031981168114610abf57600080fd5b60006020828403121561103357600080fd5b8135610dae8161100b565b60005b83811015611059578181015183820152602001611041565b50506000910152565b6000815180845261107a81602086016020860161103e565b601f01601f19169290920160200192915050565b602081526000610dae6020830184611062565b6000602082840312156110b357600080fd5b5035919050565b80356001600160a01b03811681146110d157600080fd5b919050565b600080604083850312156110e957600080fd5b6110f2836110ba565b946020939093013593505050565b60008060006060848603121561111557600080fd5b61111e846110ba565b925061112c602085016110ba565b9150604084013590509250925092565b60a08152600061114f60a0830188611062565b82810360208401526111618188611062565b905082810360408401526111758187611062565b6001600160a01b0386166060850152838103608085015290506111988185611062565b98975050505050505050565b6000602082840312156111b657600080fd5b610dae826110ba565b600080604083850312156111d257600080fd5b823591506111e2602084016110ba565b90509250929050565b600080604083850312156111fe57600080fd5b611207836110ba565b91506020830135801515811461121c57600080fd5b809150509250929050565b634e487b7160e01b600052604160045260246000fd5b600067ffffffffffffffff8084111561125857611258611227565b604051601f8501601f19908116603f0116810190828211818310171561128057611280611227565b8160405280935085815286868601111561129957600080fd5b858560208301376000602087830101525050509392505050565b600080600080608085870312156112c957600080fd5b6112d2856110ba565b93506112e0602086016110ba565b925060408501359150606085013567ffffffffffffffff81111561130357600080fd5b8501601f8101871361131457600080fd5b6113238782356020840161123d565b91505092959194509250565b6000806040838503121561134257600080fd5b61134b836110ba565b91506111e2602084016110ba565b600082601f83011261136a57600080fd5b610dae8383356020850161123d565b600080600080600060a0868803121561139157600080fd5b61139a866110ba565b9450602086013567ffffffffffffffff808211156113b757600080fd5b6113c389838a01611359565b955060408801359150808211156113d957600080fd5b6113e589838a01611359565b945060608801359150808211156113fb57600080fd5b61140789838a01611359565b9350608088013591508082111561141d57600080fd5b5061142a88828901611359565b9150509295509295909350565b600181811c9082168061144b57607f821691505b60208210810361146b57634e487b7160e01b600052602260045260246000fd5b50919050565b6000835161148381846020880161103e565b83519083019061149781836020880161103e565b01949350505050565b6000600182016114c057634e487b7160e01b600052601160045260246000fd5b5060010190565b601f8211156104c957600081815260208120601f850160051c810160208610156114ee5750805b601f850160051c820191505b81811015610d37578281556001016114fa565b815167ffffffffffffffff81111561152757611527611227565b61153b816115358454611437565b846114c7565b602080601f83116001811461157057600084156115585750858301515b600019600386901b1c1916600185901b178555610d37565b600085815260208120601f198616915b8281101561159f57888601518255948401946001909101908401611580565b50858210156115bd5787850151600019600388901b60f8161c191681555b5050505050600190811b01905550565b6060815260006115e06060830186611062565b82810360208401526115f28186611062565b905082810360408401526116068185611062565b9695505050505050565b6001600160a01b038581168252841660208201526040810183905260806060820181905260009061160690830184611062565b60006020828403121561165557600080fd5b8151610dae8161100b56fea264697066735822122047f2aaa302a4eeb7c99cd6b37ca9001439a27d1af3df2f6ec537c28032ed4ad364736f6c63430008140033",
  "linkReferences": {},
  "deployedLinkReferences": {}
}